S01200006C65645F6D61747269782E73726563E9
S11300000C9434000C9449000C9449000C9449005D
S11300100C9449000C9449000C9449000C94490038
S11300200C9449000C9449000C9449000C94490028
S11300300C9449000C9449000C9449000C94490018
S11300400C9449000C9449000C9449000C94490008
S11300500C9449000C9449000C9449000C944900F8
S11300600C9449000C94490011241FBECFEFD8E032
S1130070DEBFCDBF11E0A0E0B1E0E0EDF0E002C0F2
S113008005900D92AA30B107D9F70E944B000C9449
S113009066000C9400008FE184B98AB915B81BB8C6
S11300A041E050E0E0E0F1E080E090E09A01082EC9
S11300B002C0220F331F0A94E2F720952BB9219135
S11300C025B901968530910569F3F0CFF894FFCFF7
S10D00D07088708870F088F088F0E2
S9030000FC
