:100000000C9434000C9446000C9446000C9446006A
:100010000C9446000C9446000C9446000C94460048
:100020000C9446000C9446000C9446000C94460038
:100030000C9446000C9446000C9446000C94460028
:100040000C9446000C9446000C9446000C94460018
:100050000C9446000C9446000C9446000C94460008
:100060000C9446000C94460011241FBECFEFD8E03C
:10007000DEBFCDBF21E0A0E0B1E001C01D92A43001
:10008000B207E1F70E9408020C9453020C9400009E
:1000900080E680937C0086E880937A0081E08093FC
:1000A0007E0008958AB18F708AB98BB1806F8BB949
:1000B00084B18E6184B90E9448000895EAE7F0E0B7
:1000C000808180648083808186FDFDCF80E00895FB
:1000D00099B181E0911101C080E08093030199B151
:1000E00081E0911101C080E08093010199B181E02C
:1000F000911101C080E08093000199B181E09111DC
:1001000001C080E0809302010895863461F120F4FB
:10011000823409F449C05AC08C3419F0823591F008
:1001200055C085B1857F85B984E185B92FEF87E812
:1001300093E1215080409040E1F700C000004E9BC9
:10014000FECF089585B18B7E85B98AE085B92FEF02
:1001500087E893E1215080409040E1F700C0000023
:100160004E9BFECF089585B18D7E85B98CE085B913
:100170002FEF87E893E1215080409040E1F700C0E5
:10018000000080910301882321F0809102018111F8
:1001900024C080910101882301F18091000188230E
:1001A000E1F00E946800EDCF85B1857F85B984E1DB
:1001B00085B92FEF87E893E1215080409040E1F727
:1001C00000C0000089B18073E9F3089585B1817E94
:1001D00085B90E945E008536E0F30895EF92FF92A4
:1001E0000F931F93CF93DF937C01EB018A010E9451
:1001F0005E00853608F481C080910301882309F4EC
:100200008CC080910201882309F47BC08091010198
:10021000882309F476C080910001882309F471C015
:1002200085B18D7E85B98CE085B98FE19EE401971B
:10023000F1F700C000000E9468008091030188234C
:1002400049F080910201882329F0809101018111F8
:1002500080910001F701808367C0909100019111A6
:1002600014C031C09091000191111EC095B1957FCD
:1002700095B994E195B9EFE3FCE93197F1F700C046
:1002800000009091010191110FC0909100019923FC
:1002900059F095B19B7E95B99AE095B9EFE3FCE9E9
:1002A0003197F1F700C0000090910201992339F0D5
:1002B000C80FD11D96E498838F5FF801808386E490
:1002C0000E94850031C090910201992359F0C80F16
:1002D000D11D92E598838F5FF801808382E50E94AB
:1002E000850022C0C80FD11D92E498838F5FF8016A
:1002F000808382E40E94850017C083E50E94850008
:1003000013C0F8018081C80FD11D9CE498838F5FD2
:1003100080838CE40E94850007C0F8018081909161
:10032000010191119FCF99CFDF91CF911F910F9133
:10033000FF90EF900895FF920F931F93CF93DF9359
:10034000EC018B010E9468000E945E00853608F473
:100350004EC0F801F080CF0DD11D88818634A9F000
:1003600018F4823461F148C08C3419F08235E1F020
:1003700043C0C0910301CC2309F443C08CE40E9424
:100380008500F394F801F0823CC0C0910101CC23B8
:10039000C1F1C0910001CC23A1F186E40E94850047
:1003A000F394F801F0822DC0C0910201CC2349F1F1
:1003B00082E50E948500F394F801F08222C0C0918A
:1003C0000301C1111BC08091010181111AC0C091AC
:1003D0000001C11115C080910201811112C082E497
:1003E0000E948500F394F801F082C1E00AC083E521
:1003F0000E948500C1E005C0C1E003C0C0E001C0AB
:10040000C82F8C2FDF91CF911F910F91FF900895EE
:10041000CF93DF93CDB7DEB7C656D1090FB6F894A8
:10042000DEBF0FBECDBF0E945200A6961FAEA6979C
:10043000A7961FAEA7976E0186E6C80ED11C7E0157
:10044000E5E6EE0EF11CAE2CBF2C8C2C9D2CF6019B
:10045000808181110CC00E9468004A2D5B2DBE0175
:100460006F5F7F4F882D992D0E94EE00F0CFF7012E
:10047000008110E00150110910820E946800F7010C
:10048000808190E0801791075CF46A2D7B2DCE016E
:1004900001960E949B01F60180838111EECFD7CF98
:0A04A000F6011082D4CFF894FFCFCC
:00000001FF
