:1000000071C000008EC000008CC000008AC00000DB
:1000100088C0000086C0000084C0000082C00000CC
:1000200080C000007EC000007CC000007AC00000DC
:1000300078C0000076C0000074C0000072C00000EC
:1000400070C000006EC000006CC000006AC00000FC
:1000500068C0000066C0000064C0000062C000000C
:1000600060C000005EC000005CC000005AC000001C
:1000700058C0000056C0000054C0000052C000002C
:1000800050C000004EC000004CC000004AC000003C
:1000900048C0000046C0000044C0000042C000004C
:1000A00040C000003EC000003CC000003AC000005C
:1000B00038C0000036C0000034C0000032C000006C
:1000C00030C000002EC000002CC000002AC000007C
:1000D00028C0000026C0000024C0000022C000008C
:1000E00020C0000011241FBECFEFD1E2DEBFCDBF84
:1000F00000E00CBF12E0A0E0B2E0E8E0F3E000E0D6
:100100000BBF02C007900D92A235B107D9F722E0CC
:10011000A2E5B2E001C01D92A235B207E1F7EDD031
:10012000F1C06ECF1092D50088E68093D400E2ED46
:10013000F0E080818F7380838081877F80838081DE
:100140008F7E8083808180628083808186608083CF
:10015000E1EDF0E080818860808308958CB5806552
:100160008CBD8CB58F778CBD8DB581608DBD84B114
:10017000866084B923982B9AE4E0F1E0808188645A
:100180008083E5E0F1E0808180648083989AA09A82
:1001900008958EBD0DB407FEFDCF08950DB407FE82
:1001A000FDCF8EB50895E5E0F1E08081877F808303
:1001B00085E0EFDFF3DF80FDFBCFE5E0F1E080815C
:1001C000886080830895E5E0F1E08081877F808307
:1001D00086E0DFDF85E0DDDFE1DF81FFF9CFE5E00D
:1001E000F1E08081886080830895CF93DF93C5E03C
:1001F000D1E08881877F8883E6DF80E6CADFD3DFAE
:10020000888188608883DF91CF910895CF93DF93B1
:10021000C5E0D1E08881877F8883D5DF8DEAB9DFAB
:1002200080E0B7DF80E0B5DF80E0B3DFE09100027F
:10023000F09101028081ADDFE0910002F0910102B6
:100240008181A7DFB0DF888188608883DF91CF91CB
:100250000895EF92FF921F93CF93DF93E0910002F6
:10026000F09101028281882371F16894EE24E1F813
:10027000F12C12E0C5E0D1E08881877F88838DEA88
:1002800088DFE0910002F0910102EE0DFF1D8081F8
:1002900080DF81E0810FE0910002F0910102E80F20
:1002A000F11D808176DF1E5F7EDF88818860888314
:1002B000E12EF12CE0910002F0910102EE0DFF1D04
:1002C00080818111D9CFDF91CF911F91FF90EF9065
:1002D00008959CDFBEDFE5E0F1E08081877F8083C9
:1002E00084E057DF85E055DF59DF81FDF9CFE5E098
:1002F000F1E0808188608083089530DF13DF75DF4F
:08030000E8DFFECFF894FFCF07
:100308003A024D6573736167652052656365707461
:10031800696F6E205375636365737366756C0A0045
:100328004D65737361676520526563657074696FA5
:100338006E204661696C65640A00535049207772E3
:1003480069746520616E64207265616420746573E8
:0203580074002F
:00000001FF
